:030000000200B447
:0C00B400787FE4F6D8FD7581070200C0DB
:10009C00A4C0A499F9C0A499C0F9A4B0999282F80B
:0800AC0080908883C6A1868EB6
:0C00C0001200037F017E0012007C80F41F
:10007C00E4FDFCC3ED9FEC9E5015E4FBFA0BBB00BA
:0F008C00010AEB647B4A70F50DBD00010C80E4A6
:01009B002242
:100003007590F0E59054F064F0600CD2B7D2B675F9
:1000130090FE75A0FFC2B7E59054F064F06059D22A
:10002300B7D2B67590FE75A0FFC2B7D2B7E4FE7F14
:10003300F7A806EF08800103D8FDF59020970BEE93
:100043009000A493F5A0C2B6D2B620960BEE900012
:10005300A893F5A0C2B6D2B620950BEE9000AC9350
:10006300F5A0C2B6D2B620940BEE9000B093F5A0E3
:08007300C2B6D2B60EBE04B7FE
:01007B002262
:00000001FF
