:03000000020006F5
:0C000600787FE4F6D8FD75810B02004DF8
:10015200C0F9A4B0999282F880908883C6A1868E55
:04016200020800008F
:0300030002009266
:10009200C0E0C0F0C083C082C0D075D000C000C034
:1000A20001C002C003C004C005C006C00720B215CB
:1000B2000509E5097002050853090F7508007F64F8
:1000C2007E00120132D007D006D005D004D003D072
:1000D20002D001D000D0D0D082D083D0F0D0E03294
:1000E20075A001D2AFD288D2A8E4F50AF50B75A0AB
:1000F20001AFA0A80BEF08800123D8FDF5A0D2B76D
:10010200C2B774522509F58274013508F583E49368
:10011200F5A0D2B6C2B67F017E00120132050BE510
:100122000B7002050AC39408E50A940040C080B926
:10013200E4FDFCC3ED9FEC9E5015E4FBFA0BBB0003
:0F014200010AEB647B4A70F50DBD00010C80E4EF
:01015100228B
:100012000200E2E493A3F8E493A34003F68001F222
:1000220008DFF48029E493A3F85407240CC8C333EF
:10003200C4540F4420C8834004F456800146F6DFBE
:10004200E4800B0102040810204080900162E47EEB
:10005200019360BCA3FF543F30E509541FFEE493B3
:10006200A360010ECF54C025E060A840B8E493A37A
:10007200FAE493A3F8E493A3C8C582C8CAC583CAA5
:10008200F0A3C8C582C8CAC583CADFE9DEE780BE5D
:010166000098
:00000001FF
