:030000000201F901
:0C01F900787FE4F6D8FD758143020240D7
:1003BD00C0F9A4B0999282F880908883C6A1868EE8
:1003CD000102040810204080C0F9A4B0999282F86F
:0803DD0080908883C6A1868E82
:10040900081E010204081020408002080000100A9A
:1004190000000000000000000000000000000000D3
:10037700E4F526F527120003AD27AC267F017E00A2
:10038700120285E4F51AF51BC3E51B9509E5086418
:1003970080F8E51A64809850DCE51B25E0240AF80C
:1003A700E6FC08E6FDAF1BAE1A120285051BE51B2E
:0603B70070D6051A80D289
:0403E500D2B6C2B614
:1003E900E4FDFCC3ED9FEC9E5015E4FBFA0BBB004A
:0F03F900010AEB647B4A70F50DBD00010C80E436
:0104080022D1
:100003007590F0D3E5099408E50864809480400571
:10001300E4F508F509E59054F064F0700302010279
:100023007590FEE4F51CF51D7FF7A81DEF08800110
:1000330003D8FDF5902097237F647E001203E92007
:100043009719851C26851D270509E50970020508F2
:100053001425E0240AF8A61C08A61D20962A7F640E
:100063007E001203E9209620E51D2404FFE4351CDD
:10007300FEF5268F270509E509700205081425E01A
:10008300240AF8A60608A60720952A7F647E001294
:1000930003E9209520E51D2408FFE4351CFEF52621
:1000A3008F270509E509700205081425E0240AF8DD
:1000B300A60608A6072094317F647E001203E92078
:1000C3009427E51D2408F527E4351CF526E51D24B2
:1000D3000CFFE4351CFE0509E5097002050814252B
:1000E300E0240AF8A60608A607051DE51D7002050B
:1000F3001CC39404E51C64809480500302002B22EB
:1003030075A001D2B7C2B775A0C0D2B6C2B67F027C
:100313007E001203E975A002D2B7C2B775A0F91225
:1003230003E575A004D2B7C2B775A0A41203E5759F
:10033300A008D2B7C2B775A0B01203E575A010D25A
:10034300B7C2B775A0991203E575A020D2B7C2B79B
:1003530075A0921203E575A040D2B7C2B775A0820B
:100363001203E575A080D2B7C2B775A0F8D2B6C2A2
:04037300B60203E9E2
:080285008E288F298C2A8D2B95
:10028D00782C7C007D007BFF7A0379CD7E007F0882
:10029D001201D378347C007D007BFF7A0379D57E03
:1002AD00007F101201D3C3E5299401E528648094E1
:1002BD00804042D3E5299408E52864809480503528
:1002CD00C3E52A64809480402CD3E52B940FE52A56
:1002DD0064809480501F742B2529F8E6F5A0D2B7C1
:1002ED00C2B77434252BF8E6F5A0D2B6C2B67F029C
:0502FD007E001203E980
:0103020022D8
:10020500020377E493A3F8E493A34003F68001F295
:1002150008DFF48029E493A3F85407240CC8C333FA
:10022500C4540F4420C8834004F456800146F6DFC9
:10023500E4800B0102040810204080900409E47E4C
:10024500019360BCA3FF543F30E509541FFEE493BE
:10025500A360010ECF54C025E060A840B8E493A385
:10026500FAE493A3F8E493A3C8C582C8CAC583CAB0
:10027500F0A3C8C582C8CAC583CADFE9DEE780BE68
:0104290000D2
:10010300E709F608DFFA8046E709F208DFFA803EDE
:1001130088828C83E709F0A3DFFA8032E309F608CB
:10012300DFFA8078E309F208DFFA807088828C8333
:10013300E309F0A3DFFA806489828A83E0A3F608E7
:10014300DFFA805889828A83E0A3F208DFFA804CC1
:1001530080D280FA80C680D4806980F28033801098
:1001630080A680EA809A80A880DA80E280CA803301
:1001730089828A83ECFAE493A3C8C582C8CCC58379
:10018300CCF0A3C8C582C8CCC583CCDFE9DEE78049
:100193000D89828A83E493A3F608DFF9ECFAA9F0C8
:1001A300EDFB2289828A83ECFAE0A3C8C582C8CC1E
:1001B300C583CCF0A3C8C582C8CCC583CCDFEADE37
:1001C300E880DB89828A83E493A3F208DFF980CC99
:1001D30088F0EF60010E4E60C388F0ED2402B40492
:1001E3000050B9F582EB2402B4040050AF23234539
:0601F3008223900153730A
:00000001FF
