:0300000002019961
:0C019900787FE4F6D8FD75810F02009419
:1001700048656C6C6F00C0F9A4B0999282F88090C9
:060180008883C6A1868EF3
:10013F0053877F75985053890F438920758BFD75B1
:0B014F008DFDD28EC2ABD2AFD2AC222D
:1000D400C2B7C2B6D3EF9407EE94004005530707A6
:1000E4007E00A8077F01EF08800123D8FDF5A0D288
:1000F400B7C2B774762DF58274013CF583E493F5A9
:06010400A0D2B6C2B62233
:10010A00AB07AA067C007D6412003F8E088F097C2B
:10011A00007D0AAF03AE0212003F7C007D0A120086
:10012A003F8C0A8D0BAE02AF037C007D0A12003FA2
:05013A008C0C8D0D226C
:10000300D3EF9400EE94004015E4FDFC0DBD000118
:0E0013000CED647D4C70F5EF1F70E51E80E271
:0100210022BC
:0E00940012013F7BFF7A017970120186D2AC17
:1000A200E4F50EF50FE50F25E02408F8E6FC08E676
:1000B200FDAF0FAE0E1200D47F027E0012000305C8
:1000C2000FE50F7002050EC39403E50E940040D5B0
:0200D20080CEDE
:0801A5008F993099FDC29922E7
:10018600120026FF600C1201A5740129F9E43AFA5F
:0301960080EE22D6
:0300230002015A7D
:10015A00C0D075D000C007309807AF991201A5C268
:06016A0098D007D0D0324E
:10002600BB010689828A83E0225002E722BBFE02D8
:09003600E32289828A83E493220B
:10003F00BC000BBE0029EF8DF084FFADF022E4CCA5
:10004F00F875F008EF2FFFEE33FEEC33FCEE9DEC6E
:10005F00984005FCEE9DFE0FD5F0E9E4CEFD22EDB4
:10006F00F8F5F0EE8420D21CFEADF075F008EF2FFE
:10007F00FFED33FD4007985006D5F0F222C398FDEF
:05008F000FD5F0EA228C
:00000001FF
