:0300000002006D8E
:0C006D00787FE4F6D8FD758109020003DD
:0A007900C0F9A4B0999282F88090BB
:1000030075A001E4F508F50975A001AFA0A809EFF3
:1000130008800123D8FDF5A0D2B7C2B774792509AA
:10002300F58274003508F583E493F5A0D2B6C2B621
:100033007F017E0012004D0509E50970020508C322
:0A0043009408E508940040C080B95D
:10004D00E4FDFCC3ED9FEC9E5015E4FBFA0BBB00E9
:0F005D00010AEB647B4A70F50DBD00010C80E4D5
:01006C002271
:00000001FF
