:0300000002000EED
:0C000E00787FE4F6D8FD758109020055EA
:0400030002080000EF
:1000EB00758901758CFFE4F58AD2AFD2A9D28C80C9
:0100FB00FE06
:03000B0002009A56
:10009A00C0E0C0D075D000C000C007758C4C758A0E
:1000AA00007FFEA809EF08800123D8FDF580050925
:1000BA00E50970020508D28CD007D000D0D0D0E074
:0100CA003203
:1000CB00E4FDFCC3ED9FEC9E5015E4FBFA0BBB006B
:0F00DB00010AEB647B4A70F50DBD00010C80E457
:0100EA0022F3
:10001A000200EBE493A3F8E493A34003F68001F211
:10002A0008DFF48029E493A3F85407240CC8C333E7
:10003A00C4540F4420C8834004F456800146F6DFB6
:10004A00E4800B0102040810204080900003E47E43
:10005A00019360BCA3FF543F30E509541FFEE493AB
:10006A00A360010ECF54C025E060A840B8E493A372
:10007A00FAE493A3F8E493A3C8C582C8CAC583CA9D
:10008A00F0A3C8C582C8CAC583CADFE9DEE780BE55
:0100070000F8
:00000001FF
