:03000000020006F5
:0C000600787FE4F6D8FD75810902004DFA
:0401300002080000C1
:0300030002009266
:10009200C0E0C0F0C083C082C0D075D000C000C034
:1000A20001C002C003C004C005C006C00720B20CD4
:1000B2007580007FF47E0112011080F130B2067566
:1000C2000800750901D007D006D005D004D003D0AE
:1000D20002D001D000D0D0D082D083D0F0D0E03294
:1000E200D2AFD288D2A875800EE5096401450870A6
:1000F2000775800EF508F509AF807801EF088001D9
:0E01020023D8FDF5807F2C7E0112011080DBDA
:10011000E4FDFCC3ED9FEC9E5015E4FBFA0BBB0025
:0F012000010AEB647B4A70F50DBD00010C80E411
:01012F0022AD
:100012000200E2E493A3F8E493A34003F68001F222
:1000220008DFF48029E493A3F85407240CC8C333EF
:10003200C4540F4420C8834004F456800146F6DFBE
:10004200E4800B0102040810204080900130E47E1D
:10005200019360BCA3FF543F30E509541FFEE493B3
:10006200A360010ECF54C025E060A840B8E493A37A
:10007200FAE493A3F8E493A3C8C582C8CAC583CAA5
:10008200F0A3C8C582C8CAC583CADFE9DEE780BE5D
:0101340000CA
:00000001FF
