:0300000002000EED
:0C000E00787FE4F6D8FD758114020055DF
:06000300010800010900E4
:03000B0002009A56
:10009A00C0E0C0D0050EE50E7002050D6402450DE4
:1000AA007018F50DF50E0509E509B40A057509007C
:1000BA000508E508B40A03750800E5082430F50ABE
:0E00CA00750B2EE5092430F50CD0D0D0E032B5
:10017E00D2AF758901758C0B758ADCD2A9D28C121F
:0D018E00015C7B007A00790A12013180F5D6
:0C010500C291C2928F80D2927F027E00D5
:10011100E4FDFCC3ED9FEC9E5015E4FBFA0BBB0024
:0F012100010AEB64784A70F50DBD00010C80E413
:0101300022AC
:0A019B00C290120105C29202011188
:0A01A500D290120105C2920201116E
:10015C007F147E001201117F3812019B7F06120161
:10016C009B7F0C12019B7F0112019B7F147E00026E
:02017C0001116F
:060131008B118A128913F4
:100137007F8012019BE4F514AB11AA12A913851451
:10014700827583001200D8FF1201A50514E514C3B8
:04015700940340E4E9
:01015B002281
:10001A0002017EE493A3F8E493A34003F68001F27D
:10002A0008DFF48029E493A3F85407240CC8C333E7
:10003A00C4540F4420C8834004F456800146F6DFB6
:10004A00E4800B0102040810204080900003E47E43
:10005A00019360BCA3FF543F30E509541FFEE493AB
:10006A00A360010ECF54C025E060A840B8E493A372
:10007A00FAE493A3F8E493A3C8C582C8CAC583CA9D
:10008A00F0A3C8C582C8CAC583CADFE9DEE780BE55
:0100090000F6
:1000D800BB010CE58229F582E5833AF583E02250DD
:1000E80006E92582F8E622BBFE06E92582F8E22227
:0D00F800E58229F582E5833AF583E4932241
:00000001FF
